:1000000077C0000093C0000091C000008FC00000C6
:100010008DC000008BC0000055C70000AAC70000BB
:10002000FFC7000083C0000081C000007FC0000047
:100030007DC000007BC0000079C0000077C00000D8
:10004000BFC0000073C0000070C600006FC0000099
:100050006DC000006BC0000069C0000067C00000F8
:1000600065C0000063C0000061C000005FC0000008
:100070005DC000005BC00000E6C6000057C0000085
:1000800055C0000053C0000051C000004B025E028A
:100090005E025E0246025E025E025E025E025E0278
:1000A00050025E025E025E025E025E0255025A026B
:1000B0005E025E025E025E025E025E025E025E0240
:1000C0005E025E025E025E025E025E024B025E0243
:1000D0005E025E0246025E025E025E025E025E0238
:1000E00050025E025E025E025E025E0255025A022B
:1000F00011241FBECFEFD0E1DEBFCDBF11E0A0E0E5
:10010000B1E0EAE6F2E100E00BBF02C007900D9219
:10011000A434B107D9F724E0A4E4B1E001C01D92F2
:10012000AE39B207E1F77FD10C94330969CFE4E629
:10013000F0E080818F7E808308952091630020719C
:1001400030E0359527953595279535952795359543
:1001500027952130310589F48091440181110DC02A
:100160002FEF39EF90E0215030409040E1F700C090
:10017000000091E0909344010895232B81F4809135
:100180004401813071F42FEF39EF90E0215030407D
:100190009040E1F700C0000010924401089580E013
:1001A000089580E008958BB380688BBB08958BB36E
:1001B0008F778BBB08958AB380688ABBF8CF089588
:1001C0001F920F920FB60F9211248F939F93AF93AC
:1001D000BF9386E082BF8091620190916301A091FC
:1001E0006401B09165010196A11DB11D809362016A
:1001F00090936301A0936401B0936501BF91AF91A7
:100200009F918F910F900FBE0F901F90189586E0D1
:1002100082BF83B7887F83BF83B7846083BF87B77C
:10022000816087BF089540916201509163016091A0
:100230006401709165018091450190914601A09102
:100240004701B0914801481759076A077B0791F0A9
:100250008091620190916301A0916401B091650168
:100260008093450190934601A0934701B0934801C4
:100270000CD3E3C408950F931F9390914F019817E7
:1002800009F454C080934F018823E1F0009151019B
:10029000109152012091530130915401012B022BF6
:1002A000032B81F40091620110916301209164019C
:1002B0003091650100935101109352012093530135
:1002C00030935401823099F018F4813031F02DC010
:1002D0008330B9F08430F9F028C0CB0195D1E1E545
:1002E000F1E0808591850196918780871FC0CB01C1
:1002F00099D1E1E5F1E08285938501969387828724
:1003000015C0CB019DD1E1E5F1E08485958501968D
:10031000958784870BC0CB01A1D1E1E5F1E086850B
:10032000978501969787868701C0A6D11F910F9167
:1003300008950F931F9301DF813009F071C0809100
:100340005001882321F0813009F461C069C0809197
:100350006101811129C081E08093610182E291E015
:1003600094D182E191E091D1E1E5F1E080E1DF011A
:100370001D928A95E9F78091620190916301A091A5
:100380006401B091650180934B0190934C01A0935F
:100390004D01B0934E0110924A011092490160E064
:1003A00070E080E068DF3CC01092610160E070E0C6
:1003B00080E061DF8091510190915201A091530141
:1003C000B09154010097A105B105E9F04091620197
:1003D0005091630160916401709165018A019B01F4
:1003E000081B190B2A0B3B0BC901B80128EE33E09F
:1003F00040E050E0EAD620935501309356014093F7
:1004000057015093580181E08093500109C0E1E504
:10041000F1E080E1DF011D928A95E9F71092500129
:100420001F910F910895F3DE82DEC5DE3DD1FAD42F
:1004300039D5D1D0E1D04BD684E091E090939B04A4
:1004400080939A04789479D674DF80916101813029
:1004500011F4A9DE01C0ABDEE0916101F0E0EE0F26
:10046000FF1FE050FF4F0190F081E02D0995DBDE8A
:10047000EACFE09197048E2F90E0FC01E254F1095D
:10048000E233F105D8F4EA5BFF4FC1C66CE271E0DC
:1004900081E0F1CE08956CE271E082E0ECCE089547
:1004A0006CE271E083E0E7CE08956CE271E084E0F5
:1004B000E2CE089560E070E080E0DDCE0895CF9355
:1004C000DF93A2E3B1E0ED91FC91119712962D918B
:1004D0003C9113971496CD91DC9115974091620150
:1004E00050916301609164017091650180914B01AD
:1004F00090914C01A0914D01B0914E01481B590BB8
:100500006A0B7B0B8091490190914A01A0E0B0E019
:10051000481759076A077B0708F456C02B30310586
:1005200058F460E971E082E0A6DE88E191E0909302
:100530004A018093490138C02231310598F4EC1703
:10054000FD0728F068EB71E083E095DE04C068EBFE
:1005500071E084E090DE8CE890E090934A01809313
:10056000490122C03B9758F46CE771E084E083DED8
:1005700084E690E090934A018093490115C02B973F
:1005800058F46CE771E083E076DE84E690E09093C7
:100590004A018093490108C06CE271E081E06BDEA2
:1005A00010924A0110924901809162019091630179
:1005B000A0916401B091650180934B0190934C012F
:1005C000A0934D01B0934E01DF91CF91089582B376
:1005D0008F7082BB08958FB582608FBD8EB58861A4
:1005E0008EBD8FB5806A8FBD8FEF93E097BD86BDBE
:1005F0008EB583608EBD089587B3806687BB81B357
:10060000806F81BBE4CF0895CF93DF93EC01DFDFF0
:1006100082B3806582BBD9BDC8BDDBBDCABDDF91D9
:10062000CF910895CF93DF93EC01D1DF82B3806A3D
:1006300082BBD9BDC8BDDBBDCABDDF91CF910895D6
:10064000CF93DF93EC01C3DF82B3806682BBD9BD59
:10065000C8BDDBBDCABDDF91CF910895CF93DF93B5
:10066000EC01B5DF82B3806982BBD9BDC8BDDBBDFB
:10067000CABDDF91CF910895AADF82B3806F82BB9C
:1006800019BC18BC1BBC1ABC0895AC0120E030E0BA
:1006900007C0FA01E20FF31F9FEF94872F5F3F4FD0
:1006A00024303105B4F30895E0912201F091230143
:1006B0008FEF808320E030E015C0E0912601F091BB
:1006C00027014081D901AE5DBE4F81E090E01896D0
:1006D0000C9002C0880F991F0A94E2F7842B808344
:1006E0002F5F3F4F2430310544F3E0911201F09128
:1006F00013018FEF808320E030E015C0E0911601F8
:10070000F09117014081D901AE5EBE4F81E090E0CB
:1007100018960C9002C0880F991F0A94E2F7842B58
:1007200080832F5F3F4F2430310544F382E291E014
:10073000ACDF82E191E0A9CF0895CF93DF93FC0174
:10074000AB019B01ADECBCEC6BD59695879596956E
:100750008795969587959C01220F331F880F991FC7
:10076000880F991F880F991F820F931F9A01281BCA
:10077000390BD901A85CBE4F8C9187879A01ADECEB
:10078000BCEC4ED5EC01D695C795D695C795D695B8
:10079000C7959E0145D5969587959695879596958B
:1007A00087959C01220F331F880F991F880F991F6F
:1007B000880F991F820F931F9E01281B390BD901A7
:1007C000A85CBE4F8C9186879A0136952795369501
:1007D0002795ABE7B4E124D5EC01D695C7959E01EA
:1007E000ADECBCEC1DD5969587959695879596951D
:1007F00087959C01220F331F880F991F880F991F1F
:10080000880F991F820F931F9E01281B390BD90156
:10081000A85CBE4F8C9185879A01369527953695B1
:10082000279536952795A5ECB0E2FAD4AC01529500
:1008300042954F7045275F7045279A01ADECBCEC9F
:10084000EFD49695879596958795969587959C0173
:10085000220F331F880F991F880F991F880F991F28
:10086000820F931F9A01281B390BD901A85CBE4F38
:100870008C918487DF91CF910895643028F4FC0136
:10088000E60FF11D409544870895CF92DF92EF92D5
:10089000FF920F931F93CF93DF9300D000D0CDB77B
:1008A000DEB78091620190916301A0916401B091E3
:1008B0006501409168015091690160916A017091F0
:1008C0006B01841B950BA60BB70B84369105A10514
:1008D000B105C8F08091620190916301A09164011B
:1008E000B09165018093680190936901A0936A01BA
:1008F000B0936B018091670190E0019665E070E034
:1009000051D48093670180915001811119C11982DE
:100910001A821B821C8280914F01823009F45CC0D4
:1009200018F4813081F0D2C0833009F49DC0843046
:1009300009F4BAC0CBC041E7602F82E291E09DDFAD
:100940000F5F1F4F02C000E010E0043011059CF360
:1009500080916701882359F010C0E1E0F0E0EC0FCE
:10096000FD1FE80FF91F28E02083019602C080E0F8
:1009700090E0843091058CF38CC0813089F40AC0FA
:10098000E1E0F0E0EC0FFD1FE80FF91F20E4208309
:10099000019602C080E090E0843091058CF379C02C
:1009A000823009F076C00AC0E1E0F0E0EC0FFD1FF4
:1009B000E80FF91F21E02083019602C080E090E05B
:1009C000843091058CF365C04CE7602F82E291E0A2
:1009D00054DF0F5F1F4F02C000E010E0043011052C
:1009E0009CF380916701882359F010C0E1E0F0E0AA
:1009F000EC0FFD1FE80FF91F21E02083019602C0D4
:100A000080E090E0843091058CF343C0813089F41C
:100A10000AC0E1E0F0E0EC0FFD1FE80FF91F20E451
:100A20002083019602C080E090E0843091058CF331
:100A300030C0823071F50AC0E1E0F0E0EC0FFD1F3C
:100A4000E80FF91F28E02083019602C080E090E0C3
:100A5000843091058CF31DC048E3602F82E291E061
:100A60000CDF0F5F1F4F02C000E010E004301105E3
:100A70009CF380916701843060F4E3E0F0E0E81BD0
:100A8000F10981E090E08C0F9D1FE80FF91F80E4D1
:100A9000808300E010E050C040E5602F82E291E0EA
:100AA000ECDE0F5F1F4F02C000E010E004301105C4
:100AB0009CF380916701843060F7E1E0F0E0EC0F97
:100AC000FD1FE80FF11D80E48083E3CF4DE660E079
:100AD00082E291E0D2DE48E761E082E291E0CDDEA1
:100AE0004FE362E082E291E0C8DE43E763E082E246
:100AF00091E0C3DE4DE660E082E191E0BEDE48E7D2
:100B000061E082E191E0B9DE4FE362E082E191E0F1
:100B1000B4DE43E763E082E191E0AFDE81C0E1E073
:100B2000F0E0EC0FFD1FE00FF11F4081602F82E12C
:100B300091E0A3DE0F5F1F4F0430110584F370C0F6
:100B4000813009F06DC001E511E0D80114966D9176
:100B50007D918D919C91179724E630E040E050E024
:100B600034D36B017C01D8011A96ED91FC911B974F
:100B70009F013695279536952795ABE7B4E150D37D
:100B80009695879544E6489F9001499F300D112422
:100B9000CF01821B930B4C9DF0014D9DF00D112454
:100BA000E80FF91FD8011C96ED90FC901D97970156
:100BB0003695279536952795ABE7B4E131D39695D1
:100BC0008795489F9001499F300D1124C701821BD2
:100BD000930B489F6001499FD00C1124D8011E96A9
:100BE000ED90FC901F9797013695279536952795A0
:100BF000ABE7B4E115D396958795489F9001499F3F
:100C0000300D1124C701821B930B8601080F191F99
:100C1000BF0182E291E091DDB80182E191E08DDDDA
:100C20000F900F900F900F90DF91CF911F910F9128
:100C3000FF90EF90DF90CF9008950F931F93CF9385
:100C4000DF93E0912801F0912901508180916601A4
:100C500090E0DC01AE5DBE4F21E030E0B9011896B6
:100C60000C9002C0660F771F0A94E2F7462F40955A
:100C700045234083E0911801F09119014081DC0186
:100C8000AE5EBE4F18960C9002C0220F331F0A941E
:100C9000E2F720952423208301968370907899238E
:100CA00024F401978C6F9F6F019680936601C2E2D6
:100CB000D1E02A813B81E82FF0E0AF014E5D5E4F2D
:100CC000DA011C968C91D9018C93A2E1B1E01296C5
:100CD0008D919C9113978F010E5E1E4FF801248514
:100CE000FC0120830E80DF81C02D688181E090E0CF
:100CF0009C01FA01008402C0220F331F0A94E2F71C
:100D0000262B288316960D90BC91A02D2C91F801CE
:100D1000008402C0880F991F0A94E2F7822B8C93FB
:100D2000DF91CF911F910F9108951F920F920FB6EF
:100D30000F9211240BB60F922F933F934F935F9313
:100D40006F937F938F939F93AF93BF93EF93FF9393
:100D50002CB1809170019091710101966AE070E070
:100D600021D240916E0150916F018417950709F4CB
:100D700046C02A3011F02D3021F5209170013091BC
:100D8000710180916C0190916D0140E5429FF001ED
:100D9000439FF00D1124E958FE4FE80FF91F108210
:100DA00010926D0110926C0180917001909171010F
:100DB00001966AE070E0F6D1909371018093700122
:100DC0001EC080916C0190916D018F349105BCF42F
:100DD0006091700170917101AC014F5F5F4F509352
:100DE0006D0140936C0130E5369FA001379F500D97
:100DF000112449585E4FFA01E80FF91F2083FF9133
:100E0000EF91BF91AF919F918F917F916F915F9182
:100E10004F913F912F910F900BBE0F900FBE0F90EF
:100E20001F901895109290008FEC89B98BB1826059
:100E30008BB98AB188698AB908955D9BFECF8CB958
:100E400080E090E008951F920F920FB60F92112448
:100E50000BB60F922F933F934F935F936F937F93B4
:100E60008F939F93AF93BF93EF93FF9380919C00D9
:100E7000809397048091970460E070E0DEDFFF913B
:100E8000EF91BF91AF919F918F917F916F915F9102
:100E90004F913F912F910F900BBE0F900FBE0F906F
:100EA0001F901895109298008FEC80939900EBE9B1
:100EB000F0E0808182608083EAE9F0E080818869E7
:100EC000808308951F920F920FB60F9211240BB6D4
:100ED0000F922F933F934F935F936F937F938F93D3
:100EE0009F93AF93BF93EF93FF930D9B05C0109219
:100EF0008900109288002AC0609188007091890052
:100F0000CB01A0E0B0E0880F991FAA1FBB1F880F7C
:100F1000991FAA1FBB1F880F991FAA1FBB1F880FED
:100F2000991FAA1FBB1FBC01CD01660F771F881F29
:100F3000991F660F771F881F991F2AE330E040E052
:100F400050E043D13093330120933201FF91EF9170
:100F5000BF91AF919F918F917F916F915F914F91D1
:100F60003F912F910F900BBE0F900FBE0F901F90CF
:100F700018951F920F920FB60F9211240BB60F9275
:100F80002F933F934F935F936F937F938F939F9391
:100F9000AF93BF93EF93FF930E9B05C01092890010
:100FA000109288002AC06091880070918900CB015E
:100FB000A0E0B0E0880F991FAA1FBB1F880F991FE0
:100FC000AA1FBB1F880F991FAA1FBB1F880F991F3D
:100FD000AA1FBB1FBC01CD01660F771F881F991F79
:100FE000660F771F881F991F2AE330E040E050E02A
:100FF000ECD03093350120933401FF91EF91BF91F4
:10100000AF919F918F917F916F915F914F913F91A0
:101010002F910F900BBE0F900FBE0F901F90189541
:101020001F920F920FB60F9211240BB60F922F93AF
:101030003F934F935F936F937F938F939F93AF9360
:10104000BF93EF93FF930F9B05C0109289001092FE
:1010500088002AC06091880070918900CB01A0E0CF
:10106000B0E0880F991FAA1FBB1F880F991FAA1FE6
:10107000BB1F880F991FAA1FBB1F880F991FAA1F8C
:10108000BB1FBC01CD01660F771F881F991F660F1C
:10109000771F881F991F2AE330E040E050E095D089
:1010A0003093370120933601FF91EF91BF91AF91BB
:1010B0009F918F917F916F915F914F913F912F9170
:1010C0000F900BBE0F900FBE0F901F9018958AB314
:1010D00087608ABB8BB3887F8BBB82B18F7182B9EB
:1010E0008AB784658ABF8AB787758ABF89B7806ED9
:1010F00089BF10928B00EAE8F0E0808185608083F0
:1011000008954BB321E030E0B90102C0660F771FAC
:101110008A95E2F7CB01962F909549234BBB75E05A
:101120007A95F1F700002BB3822B8BBB80E58A9573
:10113000F1F78BB398239BBB089580916201909146
:101140006301A0916401B0916501409173015091D8
:1011500074016091750170917601841B950BA60B4B
:10116000B70B4497A105B105E0F080916201909121
:101170006301A0916401B091650180937301909324
:101180007401A0937501B093760180917201B9DF6B
:101190008091720190E0019663E070E003D080934B
:1011A0007201089597FB072E16F4009406D077FD80
:1011B00008D045D007FC05D03EF4909581959F4F0F
:1011C0000895709561957F4F0895A1E21A2EAA1B8C
:1011D000BB1BFD010DC0AA1FBB1FEE1FFF1FA217E7
:1011E000B307E407F50720F0A21BB30BE40BF50BE4
:1011F000661F771F881F991F1A9469F7609570956D
:10120000809590959B01AC01BD01CF010895EE0F33
:10121000FF1F0024001C0BBE0790F691E02D0994DF
:10122000A29FB001B39FC001A39F700D811D112427
:10123000911DB29F700D811D1124911D0895AA1B4F
:10124000BB1B51E107C0AA1FBB1FA617B70710F0B1
:10125000A61BB70B881F991F5A95A9F780959095E3
:0A126000BC01CD010895F894FFCF02
:10126A0039025F0200000002000000001D070000B2
:10127A000000610062006400650000010203FFFFD4
:10128A00FFFF340035003A003B0003040506FFFF68
:10129A00FFFF900190019001C0F9A4B0999282D801
:0412AA0080987FFFAA
:00000001FF
